:1000000041C3000067C3000065C300000C94A51F36
:1000100061C300000C94811F5DC300005BC300003E
:1000200059C3000057C3000055C3000053C300006C
:1000300051C300004FC300004DC300004BC300007C
:1000400059C5000047C30000D6C4000006C5000023
:1000500041C300003FC300003DC300003BC300009C
:1000600039C3000037C3000000000008000201008F
:100070000003040700000000000000000102040863
:100080001020408001020408102001020408102002
:10009000040404040404040402020202020203032E
:1000A00003030303000000002300260029000000D2
:1000B0000000250028002B0000000000240027007D
:1000C0002A00202020202020002575002564002201
:1000D0002563223A256400256468253032646D2545
:1000E00030326400556E6B6E6F776E20737461747E
:1000F0007573210054656D702E20636F6E74726F7E
:100100006C204F464600446F6F72206F70656E0022
:1001100057616974696E6720666F72207065616BE4
:100120000049646C00496E76616C6964206D6F648F
:1001300065002A2A2054657374696E67202A2A0094
:100140004F66660050726F66696C6500526F6F6D26
:100150002020004D6F646500202D2D2E2D000020E5
:1001600074696D65206C65667400576169742074EC
:100170006F2000696E6720666F72004865617400C9
:10018000436F6F6C00436F6E73742E004672696428
:10019000676520004265657220002C2256223A5B7A
:1001A0000022257322006C6F674944006C6F67540E
:1001B0007970650042656572004672696467650022
:1001C00025532074656D702073657420746F20252D
:1001D0007320696E204D656E752E0054656D70201C
:1001E000636F6E74726F6C207475726E6564206FCD
:1001F000666620696E206D656E752E004368616EBF
:1002000067656420746F2070726F66696C65206D1D
:100210006F646520696E206D656E752E002020204C
:100220002020202020202020202000C8050000675A
:100230001DC0050000081DB6050000881DAE052B79
:1002400004051AA6052D04051A9B050000C2199085
:10025000053004CA1985053204CA197E0554040DF7
:100260001A7B053404051A78053604051A75053815
:1002700004051A6D053A040D1A62053C040D1A575F
:10028000053E040D1A4B0540040D1A3F0542040DAE
:100290001A330544040D1A270546040D1A1505489E
:1002A00004151A03054A04151AA90452041D1AA6B6
:1002B0000453041D1AF4040000D219E5040100D20D
:1002C00019D5040200D219C8040300D219BB0404D2
:1002D00000D219AD040500D219255320736574208E
:1002E000746F20257320255300467269646765206A
:1002F00074656D7000426565722074656D70004DA7
:100300006F64650062792074656D706572617475E3
:1003100072652070726F66696C6500696E20776522
:100320006220696E74657266616365002575009D63
:100330000400039004020386040603840408028276
:10034000040A0280040C0278040E016D041001629C
:100350000412015A041401520416019B0500049072
:10036000050101850503017E0525037B050502784E
:10037000050702750509026D050B0362050D03579C
:10038000050F034B0511033F051303330515032721
:100390000517031505190503051B05F4041D00E5E4
:1003A000041E00D5041F00C8042000BB042100ADBA
:1003B000042200A9042300A60424006E756C6C00BE
:1003C0002225732200537461746500526F6F6D545F
:1003D000656D7000467269646765416E6E004672B5
:1003E000696467655365740046726964676554653E
:1003F0006D700042656572416E6E004265657253B4
:100400006574004265657254656D70002225732223
:100410000064657600302E322E3130004E3A7B2259
:1004200076223A222553222C226E223A222553226A
:100430002C2273223A25642C2279223A25642C221C
:1004400062223A222563222C226C223A222564223F
:100450007D00706F735065616B006E6567506561FC
:100460006B00706F735065616B457374006E6567E8
:100470005065616B457374006573745065616B0002
:1004800064006900700062656572536C6F7065008E
:1004900064696666496E74656772616C0062656561
:1004A0007244696666006873006C61680062656525
:1004B00072536C6F706546696C7400626565725347
:1004C0006C6F7746696C740062656572466173741F
:1004D00046696C7400667269646765536C6F706519
:1004E00046696C7400667269646765536C6F774621
:1004F000696C740066726964676546617374466905
:100500006C74006D6178436F6F6C54696D65466FF4
:1005100072457374006D61784865617454696D65E6
:10052000466F7245737400636F6F6C5461726765D8
:10053000744C00636F6F6C54617267657448006837
:100540006561745461726765744C006865617454C8
:100550006172676574480069646C6552616E6765B5
:100560004C0069646C6552616E67654800694D6155
:1005700078457272004B64004B69004B70007069E3
:10058000644D61780074656D705365744D617800D9
:1005900074656D705365744D696E0074656D704659
:1005A0006F726D617400636F6F6C45737400686582
:1005B000617445737400667269646765536574009D
:1005C00062656572536574006D6F646500000204B6
:1005D00000030001100302000003020100060004F2
:1005E00000060500200605040003020100230001A7
:1005F00000130200000305040003030410030503B5
:1006000020000000004300A200DC000A800000037C
:100610000001000200FE9A009AFF660066FF580281
:10062000B00401040303040400000014636C6F733E
:100630006564006F70656E65640046726964676525
:1006400020646F6F722025530066616C73650074BF
:10065000727565006E756C6C0025642E25303364F0
:100660000025642E253032640025642E2530316447
:10067000006E756C6C00EF0695070F080D105F1289
:100680000721652911241FBECFEFD8E0DEBFCDBF03
:1006900012E0A0E0B1E0EAEDF6E602C005900D92AE
:1006A000A833B107D9F724E0A8E3B2E001C01D9256
:1006B000AA36B207E1F713E0C2E4D3E004C0219701
:1006C000FE010E94732ECB33D107C9F70E9411158A
:1006D0000C946B330C941E15FC01918D228D892F87
:1006E00090E0805C9F4F821B91098F73992708953A
:1006F00081E492E0F1DF21E0892B09F420E0822FF0
:100700000895FC01918D828D981731F0828DE80F4C
:10071000F11D858D90E008958FEF9FEF0895FC0106
:10072000918D828D981761F0A28DAE0FBF2FB11DF4
:100730005D968C91928D9F5F9F73928F90E008954C
:100740008FEF9FEF0895B0E0A0E0E9EAF3E00C94AA
:10075000AE2E6C01EB017B01E40EF51E10E000E013
:10076000CE15DF0561F06991D601ED91FC91019004
:10077000F081E02DC6010995080F191FF1CFC801BE
:10078000CDB7DEB7E8E00C94CA2E833081F028F4B0
:10079000813099F08230A9F008958730A9F088302F
:1007A000C9F08430B1F4809180008F7D03C08091C6
:1007B00080008F7780938000089584B58F7784BD03
:1007C000089584B58F7DFBCF8091B0008F778093A3
:1007D000B00008958091B0008F7DF9CF0F931F93E3
:1007E000CF93DF93EC018B01CB010E945C30E88159
:1007F000F9810280F381E02DAC01B801CE010995A9
:10080000DF91CF911F910F91089588E793E0892B95
:1008100041F080E090E0892B21F06ADF81110E9495
:1008200000000895FC01A48DA80FB92FB11DA35A93
:10083000BF4F2C91848D90E001968F739927848F00
:10084000A689B7892C93A089B1898C9180648C93F7
:10085000938D848D981306C00288F389E02D8081E2
:100860008F7D80830895CF93DF93EC01888D88235B
:10087000B1F0AA89BB89E889F9898C9185FD03C00B
:10088000808186FD0CC00FB607FCF7CF8C9185FFE9
:10089000F2CF808185FFEDCFCE01C4DFEACFDF91BB
:1008A000CF910895EF92FF920F931F93CF93DF9311
:1008B000EC019B8D8C8D981314C0E889F989808197
:1008C00085FF0FC0EE89FF896083E889F9898081FF
:1008D0008064808381E090E0CDB7DEB7E6E00C94E1
:1008E000CC2EF62E0B8D10E00F5F1F4F0F731127CC
:1008F000E02E8C8D8E110BC00FB607FCFACFE88965
:10090000F989808185FFF5CFCE018CDFF2CFEB8DA9
:10091000EC0FFD2FF11DE35AFF4FF0820B8FEA8998
:10092000FB8980818062808381E0888FD3CFCF92E2
:10093000DF92EF92FF921F93CF93DF93EC016A0156
:100940007B01122FE889F98982E08083C11481EE4E
:10095000D806E104F104A1F060E079E08DE390E0D5
:10096000A70196010E94352E2150310941095109F4
:100970005695479537952795211580E1380798F0CA
:10098000E889F989108260E874E88EE190E0A701B7
:1009900096010E94352E2150310941095109569581
:1009A000479537952795EC85FD85832F992780837B
:1009B000EE85FF852083188EEC89FD891083EA89F6
:1009C000FB89808180618083EA89FB8980818860DE
:1009D0008083EA89FB89808180688083EA89FB893A
:1009E00080818F7D8083DF91CF911F91FF90EF9069
:1009F000DF90CF9008951F920F920FB60F9211249F
:100A00002F938F939F93EF93FF93E0915102F09177
:100A100052028081E0915702F091580282FD1BC082
:100A2000908180915A028F5F8F7320915B028217B1
:100A300041F0E0915A02F0E0EF5BFD4F958F80931B
:100A40005A02FF91EF919F918F912F910F900FBEBE
:100A50000F901F9018958081F4CF1F920F920FB6C0
:100A60000F9211242F933F934F935F936F937F9334
:100A70008F939F93AF93BF93EF93FF9381E492E0A3
:100A8000D1DEFF91EF91BF91AF919F918F917F91B7
:100A90006F915F914F913F912F910F900FBE0F90EB
:100AA0001F9018956115710511F098CE089590E08A
:100AB00080E00895DC01ED91FC910190F081E02D42
:100AC000099508950F931F93CF93DF93EC016DE089
:100AD000F1DF8C016AE0CE01EDDF800F911FDF9125
:100AE000CF911F910F9108950C94DB2E08950C94D3
:100AF000772F08951F920F920FB60F9211242F9304
:100B00003F938F939F93AF93BF93809139029091BE
:100B10003A02A0913B02B0913C023091380223E0AE
:100B2000230F2D3758F50196A11DB11D20933802D2
:100B30008093390290933A02A0933B02B0933C0217
:100B400080913D0290913E02A0913F02B0914002FF
:100B50000196A11DB11D80933D0290933E02A0938A
:100B60003F02B0934002BF91AF919F918F913F910F
:100B70002F910F900FBE0F901F90189526E8230F0E
:100B80000296A11DB11DD2CF2FB7F8946091390202
:100B900070913A0280913B0290913C022FBF0895E0
:100BA0003FB7F89480913D0290913E02A0913F02A0
:100BB000B091400226B5A89B05C02F3F19F00196C1
:100BC000A11DB11D3FBFBA2FA92F982F8827BC01A7
:100BD000CD01620F711D811D911D42E0660F771FCF
:100BE000881F991F4A95D1F70895019739F0880F0A
:100BF000991F880F991F02970197F1F7089578942C
:100C000084B5826084BD84B5816084BD85B5826011
:100C100085BD85B5816085BDEEE6F0E080818160AF
:100C20008083E1E8F0E010828081826080838081AF
:100C300081608083E0E8F0E0808181608083E1EB87
:100C4000F0E0808184608083E0EBF0E0808181606F
:100C50008083EAE7F0E08081846080838081826025
:100C6000808380818160808380818068808310920E
:100C7000C1000895CF93DF9390E0FC01E458FF4F4B
:100C8000249180579F4FFC0184918823C9F090E004
:100C9000880F991FFC01E854FF4FA591B491FC0106
:100CA000E255FF4FC591D49161110DC09FB7F894E3
:100CB0008C91209582238C938881282328839FBF41
:100CC000DF91CF910895623051F49FB7F8943C9131
:100CD000822F809583238C93E8812E2BEFCF8FB7C3
:100CE000F894EC912E2B2C938FBFEACF1F93CF93C8
:100CF000DF93282F30E0F901E859FF4F8491F90183
:100D0000E458FF4FD491F901E057FF4FC491CC2331
:100D1000A1F0162F811139DDEC2FF0E0EE0FFF1F4F
:100D2000E255FF4FA591B4918FB7F894EC91111152
:100D300008C0D095DE23DC938FBFDF91CF911F9148
:100D40000895DE2BF8CFCF93DF93282F30E0F90101
:100D5000E859FF4F8491F901E458FF4FD491F9010C
:100D6000E057FF4FC491CC2379F081110EDDEC2FB9
:100D7000F0E0EE0FFF1FEC55FF4FA591B491EC9101
:100D8000ED2381E090E011F490E080E0DF91CF91DD
:100D900008950895CF92DF92EF92FF92CF93DF9361
:100DA0006B017C01FDDEEB01C114D104E104F1040F
:100DB00079F0EFDFF5DE6C1B7D0B683E7340A0F32E
:100DC00081E0C81AD108E108F108C851DC4FECCF26
:100DD000DF91CF91FF90EF90DF90CF900895E1E405
:100DE000F2E01382128288EE93E0A0E0B0E0848308
:100DF0009583A683B78384E291E09183808385EC19
:100E000090E09587848784EC90E09787868780ECD4
:100E100090E0918B808B81EC90E0938B828B82ECC5
:100E200090E0958B848B86EC90E0978B868B118E6F
:100E3000128E138E148E0895FC0162830895FC01B6
:100E400082810895089563E070E051CE08958F92F5
:100E50009F92AF92BF92CF92DF92EF92FF920E9449
:100E600005200E94861A0E9413230E9411218CDE05
:100E70006B017C010E9415204B015C0185DE6C1921
:100E80007D098E099F0986169706A806B90618F0EF
:100E90000E942A20F3CF0E941920FF90EF90DF904C
:100EA000CF90BF90AF909F908F9008950F931F9316
:100EB000CF930E942A200E94282081112EC064DE38
:100EC000009106011091070120910801309109015C
:100ED000601B710B820B930B683E7340810591057B
:100EE000E0F052DE609306017093070180930801E1
:100EF000909309010E94EF220E9479280E947F238B
:100F0000C0910D040E94582680910D048C130E94FC
:100F1000E51C0E9429280E941E200E94651ECF9178
:100F20001F910F910895C2CF0895EEEDF2E084E392
:100F300091E091838083128208959C018FEF8F5FEF
:100F4000F901E80FF11D87FDFA959081992319F0B9
:100F50009613F5CF08958FEF0895089563E070E03C
:100F6000C6CD08950F931F93CF938C01C62FDC013C
:100F7000ED91FC910280F381E02D09958C1749F0E9
:100F8000F801C2838091B000CC2339F08062809355
:100F9000B000CF911F910F9108958F7DF8CF61E040
:100FA00083E068DE81E28093B0008BE08093B10043
:100FB0008DE78093B3008EE38093B4000895B0E092
:100FC000A0E0E5EEF7E00C94AE2E7A01062F10E0DB
:100FD000D0E0C0E0680181E0C81AD108C017D1078D
:100FE000C9F08091B00080628093B000B70181EEBB
:100FF00092E00E94E4208091B0008F7D8093B00049
:10100000CC15DD052CF4B70181EE92E00E94E420BE
:101010002196E4CFCDB7DEB7E8E00C94CA2EE3EE1C
:10102000F2E0128280E491E09183808308950B9630
:101030000E94A81791E0811101C090E0892F0895C6
:10104000FC01718360830895EF92FF921F93CF9309
:10105000DF93EC017B01142F88819981E8DFB701D0
:10106000888199810E94B9168881998140E0612F19
:101070000B960E943C18DF91CF911F91FF90EF904B
:101080000895EF92FF920F931F93CF93DF938C01FC
:10109000EA014EEBD9DF7E0189E0E80EF11CF80190
:1010A000808191810B960E9456188993CE15DF0599
:1010B000B1F7F80180819181BADFCDB7DEB7E6E004
:1010C0000C94CC2EEF92FF920F931F93CF93DF934C
:1010D0008C017B01EA01D5DF68E0CE010E946E172A
:1010E0009885891791F0AE01B701C801CADF68E0A1
:1010F000CE010E946E1791E02885281390E0892F79
:10110000CDB7DEB7E6E00C94CC2E91E0F8CFB0E09E
:10111000A0E0EDE8F8E00C94AD2EEC016B018A0143
:10112000B22E4EE491DF780182E0E80EF11C0B5FF5
:101130001F4FF70161917F018881998140E00B96F3
:101140000E943C18E016F106A1F7888199816FDFB3
:10115000BB2079F0B601888199810E94B9168881F7
:10116000998140E068E40B960E943C18888199813F
:101170005EDFCDB7DEB7E9E00C94C92E0F931F9365
:10118000CF93DF93EC018B018881998150DFB80107
:10119000888199810E94B9168881998140E068EB25
:1011A0000B960E943C18DF91CF911F910F910895EB
:1011B0001F93CF93DF93EC0144EB46DF8881998145
:1011C0000B960E941118182F8881998130DF81E0D9
:1011D000111180E0DF91CF911F910895A9E0B0E057
:1011E000E4EFF8E00C94AE2E8C017B01E1DFC82E19
:1011F000882331F0D12C8D2D2996E8E00C94CA2E4D
:10120000B701C801BBDFAE014F5F5F4FB701C80137
:1012100059DFD82E882371F38D818F3719F08FE72E
:101220008D83CD2C8B81882349F01B8221E0AE0178
:101230004F5F5F4FB701C8016ADF02C0C110F6CF30
:1012400081E08B8320E0AE014F5F5F4FB701C801A3
:101250005EDFD1CF0F931F93CF93DF93EC018B0110
:1012600088819981E4DEB801888199810E94B9164C
:101270008881998140E064E40B960E943C18DF91DC
:10128000CF911F910F910895A9E0B0E0EAE4F9E051
:101290000C94B42EAE014F5F5F4F14DF882349F0EA
:1012A0008B81882331F089819A812996E2E00C9420
:1012B000D02E80E090E8F9CF80E00895DC01ED9138
:1012C000FC910084F185E02D099521E0811590487D
:1012D00009F420E0822F089580E090E808950895B1
:1012E00008950895089580E0089564E070E0FFCBCC
:1012F000089562E070E0FBCB089564E070E0F7CB06
:10130000089563E070E0F3CB0895CF93DF93EC0191
:101310008B8119DD3A8121E03817190609F420E0A4
:10132000822FDF91CF910895CF93DF93EC018B81D2
:101330000ADD21E0892B09F420E08A818227DF91F0
:10134000CF910895FC01228162278381CFCC08953B
:10135000EF92FF921F93CF93DF937B01EA01FC0191
:10136000608188E491E0E9DD182F87FD08C0C7019E
:101370000E940030C10FD11D17FDDA956883DF91FF
:10138000CF911F91FF90EF900895EF92FF921F93DE
:10139000CF93DF937B01EA01FC0160818EE491E051
:1013A000CCDD182F87FD08C0C7010E940030C10F97
:1013B000D11D17FDDA956883DF91CF911F91FF90C2
:1013C000EF900895613031F4825091E0823038F02E
:1013D00090E005C0623029F491E08130C9F7892F8F
:1013E00008956111F5CF91E08823C9F3F1CF7F9380
:1013F0006F9325E531E03F932F938F9385E48F938F
:101400000E9480140F900F900F900F900F900F90EC
:101410000895CF92DF92FF920F931F93CF93DF93A4
:101420008C01FC018381813029F0823081F1D0E090
:10143000C0E012C084E090E06230B9F455DBEC010A
:10144000F801F580148186EA91E09983888362E04F
:10145000812F10DCFA821B83CE01DF91CF911F9187
:101460000F91FF90DF90CF9008953EDBEC01F801E3
:10147000858114812AE931E0398328838A831B839B
:1014800060E0CE015FDF61E0812FF4DBE5CF848196
:101490000E94E9206C0180E190E026DBEC01F8017C
:1014A000F78486EF91E099838883DB82CA821D826C
:1014B0001C8281E08F87B801695F7F4F48E050E070
:1014C000CE0106960E943F30FE86C6CFFC01808189
:1014D000823078F48181823060F4E281E150E93039
:1014E00040F4F0E0EE0FFF1FEA58FE4F808191813B
:1014F000089590E080E00895A0E2B0E0E2E8FAE02C
:101500000C94B02E8C01E62EF42E211102C06CE258
:10151000D1DA8F2D0F2C000C990B9F93FF921F9205
:10152000EF928FEC90E09F938F93CE0101967C0118
:101530009F938F930E947A30B701C801B3DA0FB638
:10154000F894DEBF0FBECDBFA096E6E00C94CC2E83
:101550000C94B0120895FC01DB019C91992391F049
:10156000913408F097539295907FDB0111962C915E
:10157000213430F02753922B91936E5F7F4FECCF45
:101580002053F9CF0895AF92BF92DF92EF92FF926E
:101590000F931F93CF93DF9300D0CDB7DEB75C01DD
:1015A0007B018A01FC01608186EB91E0C6DCD82ECC
:1015B000F5018081813689F448E0B701C8010A96B7
:1015C000CADF0F900F90DF91CF911F910F91FF9085
:1015D000EF90DF90BF90AF9008958A3699F4B701ED
:1015E000CE0101960E94622C882359F38981082E2E
:1015F000000C990B25E0959587952A95E1F7F80160
:101600008187DFCFD7FCDDCFC7010E940030F80112
:10161000ED0DF11DD7FCFA956083D3CFCF93DF9307
:101620009C01FA01DC0170E0CD01821B930B86174F
:101630009707ACF4ED019C9192959F709A3058F009
:10164000995C9083119698819F709A3030F0995CE4
:1016500091833296E9CF905DF4CF905DF9CF660F1C
:10166000771FFA01E60FF71F1082DF91CF910895DF
:10167000FC0120812F3F51F4838181110FC081E053
:10168000FB019281911109C080E00895022E000CA7
:10169000330B81E042171306B9F7089581E0FDCFBF
:1016A000EF92FF921F93CF93DF93CDB7DEB7629790
:1016B0000FB6F894DEBF0FBECDBF7C0110E0612FE6
:1016C000CE0101964DD7882349F1F70193812C81F2
:1016D000921322C09130C9F0923009F59885992370
:1016E000A1F098E0915088F0292F30E0F701E20F47
:1016F000F31F48E050E04C0F5D1F240F351F47815A
:10170000F9012081421771F380E0F70124819D8166
:10171000291302C0811103C01F5FD1CF1FEF812F9A
:1017200062960FB6F894DEBF0FBECDBFDF91CF91AA
:101730001F91FF90EF90089581508C3030F4E82F86
:10174000F0E0E659FE4F8081089580E00895FF9211
:101750000F931F93CF93DF938C01B8DEEC01892B9D
:1017600051F1D8011296FC908F2DE6DF823009F4FA
:1017700046C0833081F18130F1F488819981B6E0EF
:10178000FB1609F44EC00E941D2EE1E08A309E0730
:1017900091F0D80112962C91263091F42AE031E094
:1017A00039832883009739F0DC01ED91FC910280A8
:1017B000F381E02D0995CDB7DEB7E5E00C94CD2E91
:1017C000E881F9812AE031E031832083EF50FF4F37
:1017D0002FEF2083E7CF88819981B2E0893F9B0773
:1017E00051F3009739F0DC01ED91FC910680F7810F
:1017F000E02D099589EF92E099838883DCCF888179
:101800009981B2E08C3F9B07B1F2009739F0DC017F
:10181000ED91FC910480F581E02D09958CEF92E02B
:10182000EBCFB1E08A309B0731F2B8CFA2E1B0E054
:10183000ECE1FCE00C94B32E81E089838A8310E014
:101840001B83CE01019683DF1F5F1031C9F76296BB
:10185000E3E00C94CF2EEF92FF920F931F93CF9360
:10186000DF93EC018A8168DFF82ECE012FDE8C0138
:10187000892B59F08E81811108C081E0F81651F052
:10188000F81618F0A3E0AF1570F5CDB7DEB7E6E0B7
:101890000C94CC2E61E0CE01BCDD7C01F80180818E
:1018A0009181892B21F46A8170E082E0A0DD8A8138
:1018B000863061F4D701ED91FC910680F781E02D2F
:1018C000C7010995F801F182E082DFCFD8018D913F
:1018D0009C91FC01F182E082EF50FF4F2FEF2083BB
:1018E0000E94202DD2CF6F2DCE0193DDD8018D9394
:1018F0009C93CBCFFF920F931F93CF93DF938C01D9
:10190000FC019081692F70E0953038F42181622FBD
:1019100070E0273058F085E001C084E068DDC0E069
:101920008C2FCDB7DEB7E5E00C94CD2E82818031CF
:1019300020F0682F70E086E0F1CF882309F450C0D2
:10194000893008F449C02223F9F0F6DEF82EF801B8
:10195000D3816D2F37DDC82F81112FC01F92DF93E8
:101960001F92FF9284E591E09F938F9388E08F937D
:1019700085E48F93C5D78DB79EB708960FB6F894B8
:101980009EBF0FBE8DBFCCCF82E01F929F931F9250
:101990002F931F928F9383E591E09F938F9387E01E
:1019A0008F9385E48F93ACD78DB79EB70A960FB609
:1019B000F8949EBF0FBE8DBFB2CFD23009F0B0CF2A
:1019C000F80184810E94E920892B09F0A9CFF80150
:1019D000648170E089E0A2CF9111B7CF81E0D5CFCB
:1019E000211103C0992309F4B0CF80E0CECFA1E14B
:1019F000B0E0EDEFFCE00C94AC2EA82E8B016A0158
:101A00007901FB01828198DEB82E8091F802811164
:101A100003C06CE2C7014ED81092F8026BE7C70111
:101A200049D821E04A2D69E6C70166DD20E04B2D4B
:101A300064E7C70161DD20E0F801408163E6C7018A
:101A40005BDD20E0F801418162E6C70155DD20E061
:101A5000F801428166E6C7014FDD20E0F8014381CD
:101A600068E6C70149DD20E0F801468164E6C70168
:101A700043DD20E0F801448160E7C7013DDDC1148A
:101A8000D10459F0F6018081882339F067E571E0CF
:101A9000C70108D8B601C70105D8F8018381813094
:101AA00029F420E0458168E7C70126DDF80183813C
:101AB0008230B1F46DE571E0C7010E945205AE01BC
:101AC0004F5F5F4F68E0C8010796A8DDBE016F5FFA
:101AD0007F4FC7010E94520562E2C7010E945A056A
:101AE000F80183818230D1F44785F0E24F02A001F2
:101AF0001124052E000C660B770B08E023E0CE01C5
:101B000001960E94982A64E671E0C7010E9452057E
:101B1000BE016F5F7F4FC7010E9452056DE7C7018D
:101B20000E945A056196EAE00C94C82EA4E2B0E047
:101B3000ECE9FDE00C94B02E7C0162E186EE92E0CF
:101B40004DD566EE72E083EC9AE00E940B1E609128
:101B5000E602613108F06AC0CE01019601D542E18A
:101B600050E0BE016F5F7F4FCE0143960E943F3031
:101B70008091E70287FF8B8B8091E80287FF8C8B37
:101B80008091E90287FF8D8B8091EA0287FF8E8B1F
:101B90008091EB0287FF8F8B8091EF028F3F09F0DE
:101BA0008AA38091EC0287FF888F8091F0028F3F9B
:101BB00041F048E050E060EF72E0CE014A960E94AA
:101BC0003F308091EE0287FF898F8D89811104C09B
:101BD00062E1CE0143960AD54091E602BE016F5FF5
:101BE0007F4FCE01439686DE882321F1CE010196F8
:101BF000AEDDCE014396ABDDCE0143962CDE609187
:101C0000E602CE014396CBD48E010D5E1F4F85E5D3
:101C10000E94B11A81E08093F802970150E040E001
:101C2000B8018091E602E3DE0E94AC1AA496E6E0D9
:101C30000C94CC2E83E691E09F938F9383E08F9357
:101C400085E48F935DD60F900F900F900F908E01CB
:101C50000F5F1F4FDCCFFB0123853485AB014F5F46
:101C60005F4FBC018081C3CE08958F929F92AF9247
:101C7000BF92CF92DF92EF92FF920F93CF93DF93B9
:101C8000CDB7DEB76D970FB6F894DEBF0FBECDBFF0
:101C90007C014B015A016901FB018481882339F0E1
:101CA0004BDDF70163818EDB882309F456C0C70141
:101CB000F7DCF6018083118287FD07C0F401938170
:101CC00091114BC0682FC70143DCF4018281882346
:101CD00009F43FC0F70183818230D9F54601FFEF57
:101CE0008F1A9F0A8DE0F7013496DE01519601901C
:101CF0000D928A95E1F789890E94E92026EF31E06B
:101D00003A8329839C838B831E821D8281E0888B8A
:101D100048E050E0BE016C5E7F4FCE0107960E9406
:101D20003F301F86CE0101960E940E19882339F19B
:101D3000CE0101960E94AD19AC01990F660B770B8D
:101D400009E023E0C4010E94782ACE0101960E9496
:101D50009918B601C701F50109956D960FB6F8946B
:101D6000DEBF0FBECDBFDF91CF910F91FF90EF90FF
:101D7000DF90CF90BF90AF909F908F90089580E0BC
:101D800090E8DACFA2E1B0E0E8ECFEE00C94AC2EF3
:101D90008C016B015A0162E1CE01019627D481E0EA
:101DA0008C838983F12CEE24E3948F2D0E94F12003
:101DB00087FD10C0F80191819F3F11F0981308C072
:101DC0008D83EE829501A601B801CE0101964DDF0B
:101DD000F394EBCFF12C8F2D0E94FB2087FD0FC0D9
:101DE000F80191819F3F11F0981307C08D839501F1
:101DF000A601B801CE01019638DFF394ECCF6296CC
:101E0000EAE00C94C82EA4E1B0E0E9E0FFE00C9415
:101E1000A92E7C015B014A01D12CCC24C39482E021
:101E2000782E8D2D0E940121182F87FD38C062E188
:101E3000CE010196DBD3F70181818F3F21F081171D
:101E400011F0D394EECF1D83C982812F0E94E92027
:101E50008C010097B1F3ABD7BE01685F7F4FC8011B
:101E6000B3D7882371F388858832B9F47C828C815A
:101E7000823061F4B801CE014396E2D8BE01685FBA
:101E80007F4FCE01439694D98111E6CF9401A501ED
:101E9000B701CE010196E9DEDFCF1C82E8CF649660
:101EA000EDE00C94C52EEF92FF920F931F93CF930A
:101EB000DF93EC018B017A0188818F3F11F0823032
:101EC00021F4A701B801CE019EDF88818F3F11F078
:101ED000813021F4A701B801CE0154DFCDB7DEB7C0
:101EE000E6E00C94CC2EA2E1B0E0E9E7FFE00C9430
:101EF000B22E8C01198A188A8FEF8F878E871A8AE3
:101F0000BE01625F7F4F88EA99E00E940B1E1D8729
:101F10000C8781E08093F802AE014F5F5F4F6BE268
:101F20007EE0CE010E96BFDF6296E4E00C94CE2EEA
:101F3000B0E0A0E0EEE9FFE00C94AE2E7C016B0176
:101F4000EA01DB0112960C91802FF6DB182F882313
:101F5000C9F0C601BBDAFC01892BA1F0D7011296AA
:101F60002C9127FD14C0133091F48081918161E0A0
:101F7000211101C060E0DC01ED91FC910190F08144
:101F8000E02D0995CDB7DEB7E8E00C94CA2ED70155
:101F900011968C918130B1F71230D1F4808191810A
:101FA000DC01ED91FC910190F081E02D09951F92EB
:101FB0008F9389EC90E09F938F93DF93CF930E9450
:101FC0007A300F900F900F900F900F900F90DACF04
:101FD0001130B9F480819181063011F00E941D2EDC
:101FE000DC01ED91FC910084F185E02D0995AC01B7
:101FF000990F660B770B09E023E0CE010E94782A47
:10200000C1CF133009F0BECF80819181DC01ED9109
:10201000FC910280F381E02DC9CFECEFF2E080EB80
:1020200091E0918380831282E9EFF2E084E391E012
:102030009183808312820895EF92FF921F93CF9332
:10204000DF93CDB7DEB7A0970FB6F894DEBF0FBE13
:10205000CDBF7C0164E0CE014D96C0D218A2BE0176
:10206000635E7F4F85EC99E00E940B1E8D8D8E3F45
:10207000B9F48F8D87FD08C061E0811101C060E077
:1020800086E594E00E944820A0960FB6F894DEBF43
:102090000FBECDBFDF91CF911F91FF90EF900895BC
:1020A00081E08093F80210E0612FCE01019658D2B2
:1020B000882351F3412FBE016F5F7F4FCE014D96B4
:1020C000D7DA882399F01B8AAE014D5E5F4FBE01BF
:1020D0006F5F7F4FCE014D962BDF9701AE014D5EB6
:1020E0005F4FBE016F5F7F4F812F81DC1F5FDCCFB1
:1020F000A5E1B0E0EEE7F0E10C94B22E8C01CE0148
:1021000001960E943830BE016F5F7F4FC8010E9468
:1021100052056596E4E00C94CE2E8FEF8093620317
:1021200082E0809361038FEF92E00E94742144E08B
:1021300064E18FEF92E00E9479228FEF92E00C949D
:10214000FB210895A9E0B0E0E8EAF0E10C94B22E9A
:102150009C0130582230310548F468E571E08FEF7A
:1021600092E0C6DF2996E4E00C94CE2EAC01990FE4
:10217000660B770B09E021E0CE0101960E94782AD8
:10218000CE0101960E945C3005E0081B10E010179C
:102190003CF460E28FEF92E00E945D221F5FF7CF78
:1021A000BE016F5F7F4F8FEF92E00E945205DACF42
:1021B000CF93DF93EA01462F682F8FEF92E00E94C2
:1021C0002122CE01BFDFDF91CF9108950E94F1253A
:1021D000AC0161E086E0ECCF08950E940326AC01DB
:1021E00061E08CE0E5CF08958091610380FF10C02D
:1021F0008091160190911701DC01ED91FC91008412
:10220000F185E02D0995AC0162E086E0D1CF08951B
:102210000E940826F8CF0E941A262091610320FF11
:1022200002C081E090E8AC0162E08CE0C1CF08958B
:10223000462F682F8FEF92E00E9421226FED8FEFE3
:1022400092E00E945D2260912F048FEF92E00C9447
:102250005D220895CF93DF93EA01462F682F8FEF19
:1022600092E00E942122BE018FEF92E041DFDF91D8
:10227000CF91089543E551E060E080E0EBDF44E971
:1022800051E061E080E0E6DF809161034CE851E0DD
:1022900080FF02C04CE451E062E080E0DBDF61E0FF
:1022A00082E1C6DF62E082E1C3CF089580916103DD
:1022B00081FF1DC082EE92E00E94CF2083FD1CC0F2
:1022C0008091160190911701DC01ED91FC91048041
:1022D000F581E02D099590916103292F2170281730
:1022E00031F0882359F0916090936103C3DF6EDF72
:1022F00074DF7ADF90CF089580E0EDCF9E7FF4CF3A
:1023000080936103B7DFD2CF0895CF93DF93EA01C3
:10231000462F682F8FEF92E00E942122BE018FEF9F
:1023200092E00E945205DF91CF91089540E067E06E
:102330008FEF92E00E9421228091260460E471E0F8
:102340008F3681F048F48236A9F06CE871E0863669
:1023500099F065E271E006C08037A1F062E371E0B8
:102360008437B9F78FEF92E0C3DE8FEF92E00C94E1
:10237000AF22089564E971E08FEF92E0B9DE65E87D
:1023800071E0F0CF64E971E08FEF92E0B1DE64E4D8
:1023900071E0E8CFAAE0B0E0E0EDF1E10C94B02EFE
:1023A00080910A0410910D04811112E08091620362
:1023B000811719F1109362038EE5E82E81E0F82E63
:1023C00044EE50E01A3070F4812F90E0880F991F8E
:1023D000FC01EA52FE4F408151818E539E4FFC0119
:1023E000E080F18063E080E035DFB7018FEF92E0BD
:1023F0007FDE8FEF92E00E94AF220E9447259C0172
:10240000111148C00E9437258C010E943F250817F2
:102410001907E8F50E9437259C012F3F320799F1F3
:10242000C90160E17EE00E94212E7B01ECE3F0E037
:10243000C901BF010E94212E9F938F93CB01BF0141
:102440000E94212E9F938F93FF92EF9287ED90E051
:102450009F938F938E010F5F1F4F1F930F930E94C7
:102460007A300FB6F894DEBF0FBECDBFA801E114DD
:10247000F10421F40297AE014D5F5F4F63E094E1F8
:10248000981B892F42DF2A96E6E00C94CC2E0E94FE
:102490003F25C2CF8DEF810F823008F4BECF1830B8
:1024A00021F4319521953109B8CF1930D1F3155068
:1024B000123048F72091000430910104AECFEFEFC5
:1024C000F2E0138212828FE292E09183808308957A
:1024D00090E080E00E94423391E0843009F090E087
:1024E000892F08950F931F93CF93DF93D0E0C0E01F
:1024F00060E0CE010E9459332196C11584E0D807CF
:10250000B9F794D90E94A1250E94CA2506E010E0DF
:10251000C8010E944F25E801A89606591F4FCE0119
:102520000E9457252B96C017D107C9F7CE3AD14044
:1025300079F764E090E080E00E9459330E94132311
:10254000DF91CF911F910F9108958EE290E00C944E
:102550005725089586E090E00E944F25F6CF089514
:102560000F931F93CF93DF938C01C62FB1DFD82F2A
:10257000882369F0C03188F482E1C89FB00111243A
:1025800062557E4F42E150E0C8010E9432338D2FE8
:10259000DF91CF911F910F910895D0E0F8CF0F9365
:1025A0001F93CF93DF938C01C62F92DFD82F882300
:1025B00069F0C03188F482E1C89FB00111246255EE
:1025C0007E4F42E150E0C8010E944A338D2FDF91D7
:1025D000CF911F910F910895D0E0F8CF2FEF615068
:1025E00020F0FC012193CF01FACF0895615020F033
:1025F000FC011192CF01FACF0895A2E1B0E0E3E02F
:10260000F3E10C94B22E64DF082F882331F10ED948
:1026100086E090E00E9498258EE290E00E94DE2500
:1026200010E0612FCE0101969BDF8823B1F0412F8E
:10263000BE016F5F7F4FCB015DD9882329F0CE01AA
:10264000019609D91F5FEDCF62E1CE010196CEDF81
:10265000612FCE010196A3DFF5CF802F6296E4E0D3
:102660000C94CE2EFC0198E0908F82E0818F92AB8B
:1026700083ABDF01A45BBF4F9C93E35BFF4F808381
:102680000895FC0182E0860F880F808F618F82ABF6
:1026900063ABDF01A45BBF4F8C93E35BFF4F6083B1
:1026A00008950F931F93CF93DF93EC018C01025B8E
:1026B0001F4FCB01BA01AB01BC01CE012ED06A96EF
:1026C000C017D107C1F7DF91CF911F910F910895E6
:1026D000AB01770F660B770BBA0155274427E1CF83
:1026E0000895805C9F4FFC0160817181828193819C
:1026F00008950F931F93CF93DF93EC018B01A7D025
:10270000B801CE014A96A3D0B801CE01C4969FD09D
:10271000DF91CF911F910F910895A6E0B0E0E3E91A
:10272000F3E10C94A42EFC0184809580A680B780F0
:1027300080869186A286B3864080518062807380B5
:102740004482558266827782408351836283738399
:1027500080899189A289B389848B958BA68BB78B4D
:10276000C484D584E684F784C08AD18AE28AF38A55
:10277000218C308C032D10E01E830D839701860180
:10278000081B190B2A0B3B0B0C0D1D1D2E1D3F1D8D
:10279000022C04C0F594E794D794C7940A94D2F716
:1027A0000C191D092E093F09680179018C019D0151
:1027B00004C035952795179507952A94D2F70C0DE7
:1027C0001D1D2E1D3F1D032C04C075956795579543
:1027D00047950A94D2F7400F511F621F731F2D8136
:1027E0003E812150310904C07594679457944794F1
:1027F0002A95D2F7440E551E661E771E04C0B59466
:10280000A794979487943A94D2F7840C951CA61CAD
:10281000B71C2D813E81225031093A8329830980DA
:1028200004C0B595A795979587950A94D2F7950119
:102830008401081B190B2A0B3B0BC901B8016487E3
:102840007587868797872696E2E10C94C02EFC0157
:10285000AB01770F660B770BBA01552744274083EE
:102860005183628373834483558366837783408770
:102870005187628773874487558766877787408B40
:10288000518B628B738B448B558B668B778B089542
:10289000FC01408951896289738984859585A68563
:1028A000B78584179507A607B7075CF484899589CF
:1028B000A689B789481759076A077B0714F0CB0127
:1028C000089580E090E80895FC014089518962896B
:1028D000738984859585A685B785481759076A0742
:1028E0007B075CF484899589A689B7898417950745
:1028F000A607B70714F0CB01089580E090E808958B
:10290000A9E0B0E0E6E8F4E10C94A92ECB8CDC8CD5
:1029100084E427D6698D8CEA91E077D76A8D86EAC0
:1029200091E00E94C01D8AE991E09F938F93F8D5B2
:102930008E01035E1F4F0F900F90712C81EAE82EDD
:1029400081E0F82E9CECA92E90E0B92EF601E70D5F
:10295000F11D8081882309F456C0863609F445C0EC
:1029600078F4843621F17394F601E70DF11D80812E
:10297000882361F36CE281E492E00E945A05E6CF7D
:10298000833739F1843779F74801F2E08F0E911CD3
:10299000F80140815181052E000C660B770B0CE08D
:1029A00021E0CE0101960E94782A9F931AC0480127
:1029B00082E0880E911CF80181818F9380818F9332
:1029C000BF92AF92ADD50F900F900F900F908401F2
:1029D000CACF4801F2E08F0E911CF80181818F93DC
:1029E00080818F93FF92EF92EDCF4801F2E08F0E3E
:1029F000911CF801608171812CE043E0CE010196C9
:102A00000E94022AD2CF6DE581E492E00E945A052D
:102A1000C4D52996EDE00C94C52E0C9400000895C1
:102A200008950E94FF050E942707C5E0D4E00E9498
:102A300093072097E1F30E940504F9CF1F920F92AC
:102A40000FB60F921124FFCF08950E94FD1F42EC94
:102A500050E0682F80E0FECB08954DE152E060E049
:102A600087E0F8CB0895A4E0B0E0E9E3F5E10C9449
:102A7000B42E8091180190911901A0911A01B09182
:102A80001B0189839A83AB83BC830E94FD1F8C0F3B
:102A90009D1F60E0FC0181810E94AB252496E2E04D
:102AA0000C94D02EB0E0A0E0E8E5F5E10C94AA2E5D
:102AB0006C017B014A01590182EE92E00E94CF2015
:102AC0008C01C0E0B80182EE92E00E94D9200A9702
:102AD00068F50E94BE208823D1F082EE92E00E9429
:102AE000CF208C01F6010995F7010995C0E0D0913E
:102AF000E903DD2399F01092E903F7010995F50147
:102B000009958D2FCDB7DEB7ECE00C94C62ECC2303
:102B100059F3C03861F7F4010995E9CFCF5F63E05D
:102B200070E081EE92E00E94E420CCCFD0E0E9CFCB
:102B300042E050E070E060E090E080E00E94EC1F36
:102B400026E836E145E255E16AE371E184E295E188
:102B5000A9CF0895CF93C09161038C2F8C7FD0DBD8
:102B6000E7DF8C2FCDDBCF910895CF93C091260462
:102B70006C2F8AEE91E00E949D0743E050E070E0E8
:102B800060E090E00E94EC1F20EA36E14DE255E162
:102B900066E971E183E395E185DF811104C060E0BE
:102BA0008C2F0E94AB25CF910895A9E0B0E0EBED0A
:102BB000F5E10C94A62E2B016A013901FC0109955F
:102BC0007C01A0903004B090310460913204709187
:102BD00033049058029718F4E12C88ECF82E072E55
:102BE000000C880B990B0E94AC2A4C01B501BB0C60
:102BF000880B990B0E94AC2A5C01B7010F2C000CCA
:102C0000880B990B0E94AC2AA401B5010E94EC1F0D
:102C100082EE92E00E94CF205C01912CB50182EE01
:102C200092E00E94D9200A97B0F50E94BE20882326
:102C3000B1F182EE92E00E94CF205C010E94FD1F64
:102C40000E94CC2A7C01AC01602F8CE0B1DA80912B
:102C5000E903882311F31092E903C701F2010995F2
:102C6000A7010F2C000C660B770B09E021E0CE01C9
:102C700001960E94782A9F938F93DF92CF9280ECE7
:102C800091E09F938F93F30109950F900F900F9010
:102C90000F900F900F902996E0E10C94C22E9110A6
:102CA0000CC0A701602F8CE083DA939463E070E09E
:102CB00081EE92E00E94E420B1CFF0E89F12F5CFC0
:102CC00042EC50E0602F8CE0C5DAEFCF0F931F93FA
:102CD00002E010E029E43DE149EB51E065E178E2F2
:102CE0008AE196E262DF1F910F9108950F931F937F
:102CF00001E010E02BEE3CE144EB51E066EE77E2C0
:102D000083E096E252DF1F910F9108950E94FD1F0C
:102D10008130910539F08230910559F0892B79F491
:102D200024CF089560E082E60E94AB25FFDADECF73
:102D3000089560E086E60E94AB25F8DAC7CF0895D3
:102D400080912604823611F4D1CF0895863611F48D
:102D5000BDCF0895803741F48CEF91E09F938F931E
:102D60003AD60F900F9008958F36E9F78BED91E0EA
:102D7000F5CFEF92FF920F931F93CF93DF93EB0169
:102D80008C01055F1F4F40E065E5C80175D17E01EC
:102D900088E0E80EF11C699140E0C8016DD1CE15C4
:102DA000DF05C9F7CDB7DEB7E6E00C94CC2EFC0109
:102DB000108612861186178216821582148213825B
:102DC0001282118210820895A3E0B0E0EAEEF6E1EB
:102DD0000C94A92E8C015B01FC01D284DD2081F0D2
:102DE000F80110861286118680E0F801D50198015D
:102DF000285F3F4F91919D93E217F307D9F70CC0DD
:102E00004C01FBE08F0E911CC401A2D0811108C0BF
:102E1000F8011086128611862396EDE00C94C52EDB
:102E200040E060EFC40128D1C12CEE24E394FF24DC
:102E3000F39477247394F8018085F81640F5EC0D2F
:102E4000F11D80818E2129F179829E012E5F3F4FF5
:102E5000AE014D5F5F4FBE016F5F7F4FC4013FD139
:102E60009B818A819923B9F0882301F180E48F1531
:102E700008F0B6CFF801D086D11002C081E0828779
:102E8000F8018081882309F4ABCF81E0AECF8F15A4
:102E9000D9F21982DACF811109C08981811106C066
:102EA000F8E0FF1510F0F801F186DF2CF801EC0DC9
:102EB000F11D80819981913069F48E298083F3948A
:102EC000EE0C19F4C394EE24E394F7E0FC1508F03B
:102ED000B2CFCCCF9E2D90958923F0CFFC0190E00E
:102EE0008CE8615088F0519148E0792F7527292F9F
:102EF00030E035952795922F70FF02C0982F9227CA
:102F00005695415091F7EDCF892F08951F93CF9398
:102F1000DF93EC01162F6B8360E0812F0E943A064D
:102F2000612F70E0FB01E458FF4FE491E883FB015F
:102F3000E057FF4FE491F0E0EE0FFF1FEC55FF4F1D
:102F4000859194919A838983DF91CF911F91089500
:102F5000FF920F931F93CF93DF93FC011081C181E8
:102F6000D281F8948981012F0095802389837894F8
:102F70008DE7F82EFA94FF2059F182E090E00E944C
:102F8000F50588818123B1F3F8948A8180238A83AF
:102F90008981812B8983789480EE91E00E94F505E8
:102FA000F89489818023898386E490E00E94F50566
:102FB00088811823C1E009F0C0E078948AE991E0A3
:102FC0000E94F5058C2FCDB7DEB7E5E00C94CD2E31
:102FD000C0E0F8CF0F931F93CF93DF93FC011081D4
:102FE000C181D28107E38AE0611102C005E081E47A
:102FF000F8942A81912F909592239A839981912B0D
:10300000998390E00E94F5058A81182B1A837894A1
:10301000802F90E00E94F505DF91CF911F910F91D5
:1030200008950F931F93CF93DF93FC011081C1810B
:10303000D281F8948981812B89838A81012F00951F
:1030400080238A8383E090E00E94F50589818023B4
:1030500089838AE090E00E94F505C881789485E331
:1030600090E00E94F5051C2381E009F480E0DF91E7
:10307000CF911F910F910895EF92FF920F931F939D
:10308000CF93DF937C01062FC8E0D0E011E061E030
:10309000802F812309F460E0C7019CDF110F219785
:1030A000B1F7CDB7DEB7E6E00C94CC2EEF92FF92ED
:1030B0000F931F93CF93DF937C0108E010E0C0E0F3
:1030C000D1E0C701AEDF8111CD2BDD0F0150110919
:1030D000C1F78C2FCDB7DEB7E6E00C94CC2EB0E074
:1030E000A0E0E5E7F8E10C94AE2EEC018B017A014B
:1030F000690197DFF7018083CE0193DFF6018083BA
:10310000F701908191110BC081110DC0F801608110
:10311000CE0160DFCDB7DEB7E8E00C94CA2E913067
:1031200011F4813099F3F8019083F0CFFC01878589
:10313000089526EF31E0FC013183208362E070E0E6
:10314000848195810C9477050895CF93DF93EC01EA
:10315000F0DF60E170E0CE010E947705DF91CF9152
:103160000895BC016A5F7F4FFC01848195810C94B6
:103170002A090895CF92DF92FF920F931F93CF9366
:10318000DF93CDB7DEB761970FB6F894DEBF0FBE01
:10319000CDBFDC011F962C91261729F1F62E8C014C
:1031A000FE0131966F01AF0168E006960E940E0B9A
:1031B000D8011F96FC921F971296ED91FC91FF206B
:1031C00001F1DF92CF9286851F928F938FEE91E06F
:1031D0009F938F931F9289E48F9392DB0FB6F8949D
:1031E000DEBF0FBECDBF61960FB6F894DEBF0FBE37
:1031F000CDBFDF91CF911F910F91FF90DF90CF90C6
:103200000895DF92CF9286851F928F938FEE91E083
:103210009F938F9382E08F9387E5DECFA1E1B0E0AB
:10322000E4E1F9E10C94AC2E8C017C0126E0E20E85
:10323000F11CCE0101965C01AC0168E0C7010E945F
:103240000E0BF80184819581892B71F582E090E065
:103250000E9474056C01F801628173810E9420084C
:10326000F801D582C482C114D104F1F4BF92AF92A7
:1032700080EF91E09F938F931F9285E48F9340DBC3
:10328000F801848195810F900F900F900F900F900F
:103290000F90009761F4F12C6F2DC8016BDF8F2D1B
:1032A0006196EAE00C94C82EF80184819581B701FB
:1032B0000E94440981159048C1F4B701F801848146
:1032C00095810E94EE08882331F3C8014ADF6EEE33
:1032D00072E081EE92E078D7B701F80184819581A0
:1032E0000E94440981159048B1F2C8013ADFFF24D9
:1032F000F394D2CF0F931F93CF93DF938C01BC0134
:103300006A5F7F4FFC01848195810E944409EC0132
:103310008115904849F460E0C8012CDFCE01DF91AF
:10332000CF911F910F910895F8018685BE01680F16
:10333000711D87FD7A957350072E000C880B990B31
:103340002FEF33E040E05CEF0E94F92AEC0185E0CA
:10335000CC0FDD1F8A95E1F7E1CF0F931F93CF9339
:10336000DF93FC01278500E010E8222329F0EC011F
:10337000C1DF8C01CE01F5DEC801DF91CF911F9135
:103380000F910895FC01808180932F040E943A11CF
:10339000E1C808959C01CB01B9010E94282C81113C
:1033A000D9C808950F931F93CF93DF93EB01062F96
:1033B000162F13700E940030DD27CC0FDD1FCD5F6C
:1033C000DD4FE881F98160832091640430916504C8
:1033D000033020F42091620430916304113069F0CD
:1033E00040F0123071F0B6D8DF91CF911F910F915C
:1033F0000895C9010E940F2EF6CFC9010E94132E15
:10340000F2CFC9010E94182EEECF9C01CB01B90169
:103410000E94992C81119EC808959C01CB01B9018D
:103420000E94622C811196C808959C01CB01B901BC
:103430000E94F52C81118EC80895A1E0B0E0E3E26E
:10344000FAE10C94B22E8B01BC01CE0101960E94D0
:10345000C12C882321F08981F80180837BD82196B3
:10346000E4E00C94CE2EA6E0B0E0E9E3FAE10C949F
:10347000AE2E7C016B01DF926F93FF928F9380E001
:1034800092E09F938F938CE08F9389E48F9338DA47
:103490000BE212E00FB6F894DEBF0FBECDBF46E0E0
:1034A00050E0B801CE0101960E94263069817A81F0
:1034B000C7010E942F30892B51F46B817C81ED81F3
:1034C000FE81C60109952696E8E00C94CA2E0A5F93
:1034D0001F4F92E0093D190711F783E691E09F9392
:1034E0008F931F9287E58F930BDA0F900F900F90B9
:1034F0000F90E9CF8091160190911701DC01ED91B9
:10350000FC910084F185E02D0995089526E040E0C6
:1035100051EE60E070E081E492E00C94970408952D
:10352000B0E0A0E0E6E9FAE10C94B42E9E012B5F36
:103530003F4FF901419151919F0160E870E085E6AC
:1035400093E00E949A3065E673E081E492E00E9485
:103550005205E2E00C94D02E81E492E00C946205D6
:103560000895682F81E492E00E945A056AE381E49D
:1035700092E00E945A0581E08093E5030895F1DF0F
:103580006BE581E492E00C945A0508956DE581E4C1
:1035900092E00E945A05E0CF08956DE781E492E041
:1035A0000E945A05D9CF0895A4E0B0E0EAEDFAE10F
:1035B0000C94AF2E7B01D42ED4DFDA948FEFD81683
:1035C000C9F087010C5F1F4F44E050E0B701CE0106
:1035D00001960E942630EC81F0E0EE0FFF1FE15FC4
:1035E000FD4F0190F081E02D6B8189819A810995D1
:1035F0007801E3CFD2DF2496E7E00C94CB2E8FE264
:1036000094E0909364038093630348E16BE573E077
:1036100083E4CACF08958EE094E09093640380938E
:1036200063034BE06FE273E086E5BECF0895CF936E
:10363000DF93EC018091E5036CE281116BE781E49B
:1036400092E00E945A051092E50362E281E492E062
:103650000E945A05DF93CF9363DF62E281E492E038
:103660000E945A056AE381E492E00E945A050F9095
:103670000F90DF91CF910895CF93DF93EB01D7DFC8
:103680008BEB93E0209711F080EC93E0DF93CF93E6
:103690009F938F9345DF0F900F900F900F90DF91C6
:1036A000CF910895EF92FF920F93CF93DF93CDB711
:1036B000DEB729970FB6F894DEBF0FBECDBF7C01F1
:1036C000AB01770F660B770B09E022E0CE01019684
:1036D0000E94782AC701ABDFBE016F5F7F4F81E494
:1036E00092E00E94520529960FB6F894DEBF0FBEF5
:1036F000CDBFDF91CF910F91FF90EF900895CF93C1
:10370000DF93EB0194DFBE0181E492E00E94520559
:10371000DF91CF910895EF92FF920F93CF93DF93B4
:10372000CDB7DEB72C970FB6F894DEBF0FBECDBF76
:103730007C01E0916303F0916403E60FF11D408189
:103740005181052E000C660B770B0CE021E0CE01B9
:1037500001960E94782ABC01C701D1DF2C960FB6D2
:10376000F894DEBF0FBECDBFDF91CF910F91FF90D8
:10377000EF900895ACE0B0E0E0ECFBE10C94B22EE9
:103780008C01E0916303F0916403E60FF11D608109
:1037900071812CE043E0CE0101960E94022ABC0117
:1037A000C801ADDF2C96E4E00C94CE2EEF92FF9290
:1037B0000F93CF93DF93CDB7DEB72C970FB6F89466
:1037C000DEBF0FBECDBF7C01E0916303F0916403C7
:1037D000E60FF11D40815181052E000C660B770B21
:1037E0000CE023E0CE0101960E94982ABC01C7019B
:1037F00086DF2C960FB6F894DEBF0FBECDBFDF91EB
:10380000CF910F91FF90EF900895CF93C62F0FDFC8
:1038100062E281E492E00E945A056C2F81E492E01A
:103820000E945A0562E281E492E00E945A05CF911B
:103830000895EF92FF920F93CF93DF93CDB7DEB74A
:103840002C970FB6F894DEBF0FBECDBF83E589DE9F
:1038500086E2E82E84E0F82EF701608188EC95E09E
:10386000D4DFF70141815281052E000C660B770BE6
:103870000CE022E0CE0101960E94782ABC0180EC87
:1038800095E03DDFF70143815481052E000C660B66
:10389000770B22E0CE0101960E94782ABC0186EBCC
:1038A00095E02DDFF701658176812CE043E0CE01C4
:1038B00001960E94022ABC018EEA95E020DFF70102
:1038C000678170852CE043E0CE0101960E94022AB8
:1038D000BC0186EA95E013DF60DE2C960FB6F89403
:1038E000DEBF0FBECDBFDF91CF910F91FF90EF9064
:1038F0000895E0916303F0916403E60FF11D608188
:1039000084CF0895CF93DF93EB0191DEDF93CF93C4
:103910008CE293E09F938F9303DE0F900F900F90B4
:103920000F90DF91CF910895E0916303F0916403CC
:10393000E60FF11D60817181E5CF08950F931F930C
:10394000CF93DF938C01EB0184E50BDE0E94F12520
:10395000BC0183E094E0A6DE0E940326BC018BEF4D
:1039600093E0A0DEB80183EF93E086DE0E94082694
:10397000BC0188EE93E096DE0E941A26BC018EED13
:1039800093E090DEBE0184ED93E076DEB3DD8091BE
:10399000160190911701DC01ED91FC910480F581F5
:1039A000E02D0995882329F0A5DDBC018BEC93E07F
:1039B00079DE60910D0470E085EC93E0A3DFEDDD2E
:1039C000DF91CF911F910F91089570E060E090E03A
:1039D00080E0B4CF0895A0E8B0E0E1EFFCE10C9402
:1039E000B42E9E012B573F4FF901419151919F01F8
:1039F00060E870E0CE0101960E949A3070E060E0CD
:103A0000CE0101969BDFC058DF4FE2E00C94D02E30
:103A1000A2E0B0E0EEE0FDE10C94B22E8C01BC011E
:103A2000CE0101960E94282C882361F18091260402
:103A3000803761F589819A8120912704309128048B
:103A4000821B930B97FF03C0919581959109853651
:103A50009105A4F084E093E09F938F931F930F93BD
:103A600085EF92E09F938F9389ED92E09F938F93E0
:103A7000B2DF0FB6F894DEBF0FBECDBF89819A8149
:103A80000E94E6272296E4E00C94CE2E8BE193E090
:103A9000E3CFA0E8B0E0EFE4FDE10C94B42E9E018A
:103AA0002B573F4FF901419151919F0160E870E020
:103AB000CE0101960E949A30BE016F5F7F4F90E069
:103AC00080E03CDFC058DF4FE2E00C94D02ECF9373
:103AD000DF93EC0160E088810E94AB258BE193E0ED
:103AE0009F938F93DF93CF938FEF92E09F938F936A
:103AF00089ED92E09F938F93CCDF8DB79EB70896A8
:103B00000FB6F8949EBF0FBE8DBFDF91CF91089581
:103B1000A2E0B0E0EEE8FDE10C94B22E8C01BC0115
:103B2000CE0101960E94282C8823E1F08091260482
:103B30008636A1F48BE193E09F938F931F930F93AD
:103B400089EE92E09F938F9389ED92E09F938F93FC
:103B5000A0DF0FB6F894DEBF0FBECDBF89819A817A
:103B60000E9415282296E4E00C94CE2EE091630387
:103B7000F0916403E60FF11D608170E0C3CE0895FB
:103B800070E0C0CE0895CF93DF93C0E1D7E281E427
:103B900092E00E946C03892B49F484E690E00E9435
:103BA000F5052197A1F78FEF9FEF04C081E492E024
:103BB0000E948F03DF91CF9108950F931F93CF93AE
:103BC000DF938C01FC011082C0E0DDDFCD31B9F064
:103BD0008D379105A1F08F3F980789F08C329105C0
:103BE000C1F08A339105A9F09C012D7F2032310567
:103BF00061F3F801EC0FF11D8083CF5FE6CF80E029
:103C0000C00FD12FD11D1882DF91CF911F910F913D
:103C1000089581E0F5CFCF92DF92EF92FF921F934C
:103C2000CF93DF93CDB7DEB7EC970FB6F894DEBF36
:103C30000FBECDBF7C016B011F8E1982A4DF8B37B5
:103C4000910501F19F938F9385E591E09F938F9369
:103C50008AE08F9385E48F930E9480140F900F90D9
:103C60000F900F900F900F90EC960FB6F894DEBF68
:103C70000FBECDBFDF91CF911F91FF90EF90DF90EE
:103C8000CF900895CE014F9698DF182F882321F00A
:103C9000CE01019692DF182F8981882359F08F8DEC
:103CA000882341F0A601BE016F5F7F4FCE014F9682
:103CB000F70109951111E6CFD7CF70E060E083E3FB
:103CC0009AE1A9DFB6DD9BCC0895A5E1B0E0EBE673
:103CD000FEE10C94A42E85E5482E81E0582E222486
:103CE0002394CE0101967C019CE0692E94E0792E0C
:103CF00021E1C22E24E0D22E35E1A32E34E0B32EF2
:103D00004CE1842E44E0942E03E611E081E492E03D
:103D10000E946C03181619060CF0EFC081E492E0C3
:103D20000E948F0399278535910509F4DBC00CF0BB
:103D300046C08334910509F492C004F58D30910595
:103D400029F39CF48A30910509F39F938F935F9236
:103D50004F922F9297E59F930E9480140F900F909F
:103D60000F900F900F900F90D1CF8032910571F28C
:103D70008134910551F72092E002C8CF8634910535
:103D800009F4B8C07CF485349105F9F60E947212EA
:103D90001F930F938FE08F9389E48F930E94801479
:103DA00040D269C08235910509F4A1C083359105DF
:103DB00061F6F0D63EDD1F930F938EE057C08A3632
:103DC000910509F485C0DCF48336910509F45AC0E5
:103DD0003CF48136910509F0B8CF1092E00296CFFD
:103DE0008436910509F476C08836910509F0ADCF87
:103DF00088E6C5DB81E492E00E94730F71C08337CF
:103E0000910509F43DC004F58C36910509F43CC0D8
:103E10008E36910509F099CF1F922F921F9283E75A
:103E20008F931F921F921F9282E08F93DF92CF9207
:103E3000BF92AF929F928F9273DB8EDB0FB6F89496
:103E4000DEBF0FBECDBF62CF8437910531F086371C
:103E5000910509F07ACFDFDB59CFB7DD57CF71D6A7
:103E60000E943A11CCDB1F930F938DE08F9389E46E
:103E70008F930E9480140F900F900F900F9046CF59
:103E8000D8DC44CFBCDB42CF8CE46BDB6BE581E458
:103E900092E00E945A05312CA701632D8FEF92E02A
:103EA000EBD1FF92EF927F926F923ADB0F900F90DF
:103EB0000F900F9093E06DE539126CE281E492E08F
:103EC0000E945A05339484E03812E6CF45DB1ECFBA
:103ED000F4DE1CCF84E653DB81E492E00E941C10E8
:103EE00055DB14CF81E492E00E94960D0FCF0E9423
:103EF0000D150CCF0E94101509CF6596E2E10C94C8
:103F0000C02E1F920F920FB60F9211242F933F9342
:103F10004F935F936F937F938F939F93AF93BF93D1
:103F2000EF93FF934F9B23D1FF91EF91BF91AF91FF
:103F30009F918F917F916F915F914F913F912F91C1
:103F40000F900FBE0F901F9018951F920F920FB6F3
:103F50000F9211242F933F934F935F936F937F930F
:103F60008F939F93AF93BF93EF93FF9383B163B10D
:103F70006695617091E0692780958170BBD0FF9153
:103F8000EF91BF91AF919F918F917F916F915F91D1
:103F90004F913F912F910F900FBE0F901F9018954A
:103FA00062E088E00E943A0662E089E00E943A06F8
:103FB00062E087E00E943A06E8E6F0E080818560F2
:103FC0008083EBE6F0E0808183608083EDE6F0E0C3
:103FD00080818068808308959C019FB7F894309316
:103FE000EB032093EA037093ED036093EC0350938B
:103FF000EF034093EE039FBF08952FB7F89480918D
:10400000EA039091EB032FBF089583EE92E00E94A4
:10401000CF0744EF51E062E083EE92E00E94DF07B9
:104020000E948D10BDDF80E0089560E070E0CB015C
:1040300008950E943A110C94CA1108950E94CA1161
:104040000E9456110E9496118FEF92E001C10895CF
:1040500080E008956091E002662321F06091E5021E
:1040600081E0682783EE92E00E94B2078091E90325
:10407000882321F01092E9030C94AA150895FC01FD
:1040800080850895089569E070E00C94770508959F
:104090001F93CF93DF93EC01162F68878E819F814A
:1040A000DC01ED91FC910190F081E02D0995112347
:1040B00029F082EE92E073D09B838A83DF91CF91C7
:1040C0001F910895CF93DF93EC016A817B8182EE8B
:1040D00092E06FD02C813D818217930740F0E881F8
:1040E000F9810190F081E02D60E0CE010995DF912A
:1040F000CF910895E091E803EF7094E0E99FF0011B
:104100001124660F862BE80FF11D8091530488233C
:1041100039F1E751FA4FE491E093E8032091E80385
:104120002073E9F08091EA039091EB032031D9F4F8
:1041300001964091EE035091EF032091EC033091F2
:10414000ED034817590724F08217930774F09C0178
:104150003093EB032093EA038FEF92E0EDC00895D4
:10416000E353FA4FD8CF0197E4CF9A01F1CF81E022
:104170008093E9038FEF92E0DFC008953EDF209146
:10418000E6033091E7032817390731F09093E703EE
:104190008093E60381E008958091E90308950E94E9
:1041A000C40528EE33E040E050E00E94352EC901FE
:1041B0000895CF93DF93EB0182EE92E0F0DF8C1B4A
:1041C0009D0BDF91CF91089590E080E00C94CA069A
:1041D0000895823119F090E080E0089580EF93E037
:1041E0000895843030F4E82FF0E0E95DFD4F8081E0
:1041F00008958FEF0895882311F08FEF089584E0DC
:104200000895882311F08FEF089582E1089562E107
:104210008BEF93E00E94861780EF93E00C94D71603
:1042200008950E94FD12811112C0B4D48AD40E9454
:10423000160C83E691E09F938F9383E08F9387E53D
:104240008F930E9480140F900F900F900F900895FD
:10425000CF93DF93EC016C857D8582EE92E0A9DF40
:104260008935924030F08C8184608C83DF91CF91CE
:1042700008958C818B7FF9CF25E1629F800D911D80
:104280001124FC013E96DA019F012C5E3F4F819183
:104290008F3D09F480EB8D93E217F307C1F7FA0124
:1042A000148A089561E08BE00E943A0661E08DE097
:1042B0000E943A0661E08AE00E943A068CB58F7D42
:1042C0008CBD8CB582608CBD8DB581608DBD8CB58B
:1042D00088608CBD8CB584608CBD8CB580618CBDD4
:1042E0008CB580648CBD0895CF93DF93EC0160EDB5
:1042F00077E081EE92E068DF61E08AE00E943A06B2
:1043000088E28D83CE01CEDF1D861C86DF91CF91A2
:104310000895CF93DF93EC0160E08AE00E94760677
:104320008C818EBD0DB407FEFDCF61E08AE00E9456
:104330007606DF91CF910895CF93DF93EC0182EE63
:1043400092E02DDF9D878C87CE0182DFCE01E1DFF9
:10435000DF91CF910895CF93DF93EC018C81826040
:104360008C83CE01D6DF81E090E00E94F5058C8140
:104370008D7F8C83CE01CDDFDF91CF910895CF93D8
:10438000DF93EC018C818F7090E1699FB001112463
:10439000682B6C83CE01BDDFCE01DDDFDF91CF91D5
:1043A00008950F931F93CF93DF93EC01162F0FB750
:1043B000F8948C814423B1F081608C83CE01A9DF15
:1043C000612F70E084E0759567958A95E1F7CE01DD
:1043D000D6DF612FCE01D3DF0FBFDF91CF911F91C9
:1043E0000F9108958E7FE9CF40E0DBDF80EA9FE008
:1043F0000197F1F70895CF93DF93EC0161E0F4DFCB
:104400009E012C5A3F4F40E290E080E0DE01A80F71
:10441000B91F1E964C93019684319105B9F71AA2E3
:104420006596C217D30781F7DF91CF910895CF9397
:10443000DF93EC0162E0D8DF18861986DF91CF9117
:104440000895A4E0B0E0E7E2F2E20C94B22E00910D
:104450001C0110911D0120911E0130911F01098343
:104460001A832B833C83FC012285421708F040E02D
:10447000FC0140876187FE01E40FF11D2181620F7D
:104480006068B2DF2496E4E00C94CE2EFC016681D5
:10449000262F246026836C60A7CF0895FC016781D6
:1044A000262F2260278366609FCF0895FC016781D5
:1044B0006E7F6783646098CF0895FC018185908545
:1044C000DF0125E1929FA00DB11D1124A80FB11DA0
:1044D0001E966C938F5F81878385811107C0CF0102
:1044E00041E05FDF80EA9FE00197F1F781E090E033
:1044F0000895CF93DF93EC014A871886198680E5EB
:1045000093EC0E94F50563E0CE0139DF80E593EC82
:104510000E94F50563E0CE0132DF88EE93E00E9451
:10452000F50563E0CE012BDF80E593EC0E94F505F5
:1045300062E0CE0124DF80E593EC0E94F50568E29D
:10454000CE0152DFCE0157DFCE01A8DFCE01AEDFB4
:10455000CE016DDFCE019ADFDF91CF910895CF9329
:10456000DF93EC018985843128F460E2CE010E945A
:104570005A05F8CFDF91CF910895009741F0DC0103
:10458000ED91FC910480F581E02D0995089580E07E
:1045900008956817790768F4861B970B209100042B
:1045A000309101042817390720F490930104809377
:1045B0000004089510920C0410920B040895CF93F8
:1045C000DF93EC010E946F2D88819981D6DF8111E4
:1045D00003C0CE010E94202DDF91CF9108958091DC
:1045E000640490916504EBDF809162049091630410
:1045F000E6DF8091160190911701DC01ED91FC91AD
:104600000084F185E02D09958115904859F4809139
:10461000160190911701DC01ED91FC910680F78164
:10462000E02D09950895CF93DF9310920D048FE646
:104630008093260460E086E594E02ADD809164049E
:1046400090916504892B21F582EF90E00E9474051A
:10465000EC0102960E943213CE01805B9F4F0E94B4
:104660003213CE0182569F4F0E943213FE01E45155
:10467000FF4F8FEF80832AE031E03983288335961E
:104680008083D0936504C0936404CE010E94202DE2
:104690008091620490916304892B21F582EF90E070
:1046A0000E947405EC0102960E943213CE01805BD9
:1046B0009F4F0E943213CE0182569F4F0E943213A9
:1046C000FE01E451FF4F8FEF80832AE031E0398310
:1046D000288335968083D0936304C0936204CE010F
:1046E0000E94202D7CDF66DF1092050410920404E6
:1046F0001092030410920204DF91CF9108958F92DB
:104700009F92AF92BF92CF92DF92EF92FF928091F1
:104710002604823659F0803749F08636A9F481E0C4
:1047200090E890932804809327040EC020912704DA
:1047300030912804C9019058029778F481E090E8FC
:1047400090932A0480932904FF90EF90DF90CF90FC
:10475000BF90AF909F908F90089580916404909146
:104760006504FC01EC57FF4F4485558566857785C8
:10477000261B370B30930F0420930E040E94002E4B
:1047800090931504809314048091620490916304C3
:104790000E94FA2DFC019091FF0360910E0470912C
:1047A0000F049C3309F489C09F5F9093FF038091AD
:1047B00034049091350472D79093170480931604B3
:1047C00040911004509111046091120470911304EF
:1047D000809136049091370440D7909319048093C8
:1047E000180460911404709115048091380490911C
:1047F000390454D790931B0480931A042091270402
:10480000309128046901032E000CEE08FF08409146
:10481000160450911704052E000C660B770BC40E7E
:10482000D51EE61EF71E4091180450911904052E5E
:10483000000C660B770B4C0D5D1D6E1D7F1D092E48
:10484000000CAA0BBB0B4C015D01840E951EA61E2D
:10485000B71EC0903004D090310460915404709120
:104860005504C601860F971F821793071CF4690130
:10487000C61AD70AE0903204F0903304C701861BB1
:10488000970B281739071CF47901E60EF71EC501AE
:10489000B401CED68C159D050CF492C0C501B401AF
:1048A000C7D6E816F90624F0C501B401C1D67C01CB
:1048B000F0922A04E092290447CF1092FF03C0909F
:1048C0001004D0901104E0901204F0901304809131
:1048D0000D0481117BC0CB0177FF04C08827992785
:1048E000861B970B20913A0430913B048217930763
:1048F0000CF059C091E0161617060CF090E081E01C
:104900001C141D041E041F040CF080E0981347C003
:104910002091290430912A0480913204909133042B
:1049200028173907CCF5CB01409130045091310460
:104930004217530714F090E080E040912704509113
:104940002804A0915404B09155045901A41AB50A41
:10495000AA16BB0614F090E080E0421B530B4A17E6
:104960005B0714F090E080E0161617065CF13C5FE0
:104970002E173F075CF1092E000CAA0BBB0B8C0D08
:104980009D1DAE1DBF1D8093100490931104A09334
:104990001204B09313040BCF90E080E0C5CFCB019D
:1049A000880F991FE8CFD701C60123E0B595A795D9
:1049B000979587952A95D1F7919581959109DBCFA8
:1049C000760176CF3450E217F307ACF690E080E042
:1049D000D2CFCF93DF93EC0177FF03C07195619540
:1049E000710985E0759567958A95E1F7072E000CAA
:1049F000880B990B2AE930E050E040E0FAD5688155
:104A000079818A599D4F4AD6893191053CF0998325
:104A100088830E94A512DF91CF91089589E190E0EB
:104A2000F6CFCF93DF93EC0177FF03C071956195CB
:104A3000710985E0759567958A95E1F7072E000C59
:104A4000880B990B25E530E050E040E0D2D5688135
:104A500079812AEA31E0A901481B590BCA011ED607
:104A6000998388830E94A512DF91CF910895609168
:104A700002047091030482EE92E09BCB0895609152
:104A800004047091050482EE92E093CB0895609146
:104A900006047091070482EE92E08BCB089547E202
:104AA00050E0BC018FE294E00C944A33089549E051
:104AB00050E0BC0186E294E00E944A3380912704D2
:104AC0009091280490930904809308040895CF934B
:104AD000DF93CFE2D4E06D8D809162049091630406
:104AE0000E940F2E6E8D80916204909163040E944B
:104AF000132E6F8D80916204909163040E94182E92
:104B000068A180916404909165040E940F2E69A1B0
:104B100080916404909165040E94132E6AA1809193
:104B20006404909165040E94182EDF91CF9108953E
:104B300047E250E0BC018FE294E00E943233C7CFDD
:104B4000089547E250E065E076E08FE294E00E944D
:104B50002630BDCF089590912604981305C09091FA
:104B60000D049550933098F410920D048093260410
:104B70008F3651F481E090E89093280480932704C5
:104B800090932A04809329040E94A51202C0611107
:104B9000EDCF089560E08FE6DEDFE6E2F4E081E04D
:104BA00090E8928381839483838386E690E0968362
:104BB000858380E09AE090878783089549E050E0FC
:104BC000BC0186E294E00E943233E6E2F4E08181A7
:104BD0009281909309048093080461E08081BBCFA7
:104BE0000895E0916404F091650480819181C5DCB1
:104BF000882331F08091640490916504FBC7089587
:104C000080E090E808958091270490912804089509
:104C1000E0916204F091630480819181AEDC88238D
:104C200031F08091620490916304E4C7089580E0BC
:104C300090E808958091290490912A040895909114
:104C40000D0481E0943021F0983011F080E0089557
:104C50000895CF92DF92EF92FF92CF93DF934817A0
:104C6000590708F4CA019C01DB010E948E2E20E145
:104C70003EE040E050E00E94572E6901E901DFDF8D
:104C8000882321F0CC27DD27CC19DD09809162042F
:104C900090916304AFD78C0F9D1F90931D04809358
:104CA0001C04DF91CF91FF90EF90DF90CF9008959B
:104CB000B0E0A0E0EEE5F6E20C94AB2E80910C01A2
:104CC00090910D01DC01ED91FC910190F081E02DBE
:104CD000099590910A04981791F080930A04811124
:104CE0004CC08CE296E09F938F938AE396E09F936B
:104CF0008F930E94491D0F900F900F900F908091FD
:104D00002604912C8F3629F481E080930D04992498
:104D100093948091290490912A049058029708F066
:104D20002FC010920D0499249394B1DEEC019FDE04
:104D30007C01A5DE6C0180916204909163045AD7D6
:104D40005C01809164049091650454D78C0182EEDB
:104D500092E025DAE0910D04EA3008F07DC0F0E041
:104D6000ED54F94DC0C7DC26DC262C27B0277A2766
:104D7000DC26DC26DC267A27B02783E396E0B3CF57
:104D8000E0916204F091630480819181F6DB8823D5
:104D900009F4C7CFE0916404F091650480819181AA
:104DA000ECDB8111C2CF80912604823609F4B9CFA1
:104DB000803709F0BACFB5CF9093070480930604EB
:104DC00091104AC0109201041092000480912904AD
:104DD00090912A0420913C0430913D04280F391F02
:104DE0002A153B050CF042C0B60188E592E0D1DB04
:104DF00080912604863631F5B70188E592E0C9DB5B
:104E00008091120190911301895F924049F0809145
:104E1000000490910104892B39F185E080930D0401
:104E200080910D0483508230B8F480910B04882364
:104E300009F457C0B70188E097E0ABDB87E08093C7
:104E40000D040AC080912704909128040F968017C2
:104E5000910734F010920D04CDB7DEB7EBE097C7A1
:104E6000B7018CE291E0CBCF84E0D8CF20913E0413
:104E700030913F04820F931FA816B9065CF7B70163
:104E800088E592E086DBB6018CE390E082DB8091DE
:104E90002604863641F080912704909128040F97CC
:104EA00008171907BCF68091140190911501895FCC
:104EB000924069F480915204882309F4B1CF809123
:104EC000100190911101895F924009F4A9CF80915E
:104ED000000490910104892B11F086E09FCF83E0BC
:104EE0009DCF80910C04882309F4B6CFB60184E8E5
:104EF00093E0A3CF21E020930B04909303048093CD
:104F0000020460912D0470912E04AE0180914A0438
:104F100090914B049EDE84E080930D0420911C044C
:104F200030911D048091290490912A0482179307DF
:104F300074F480912604863609F48ECF809127047C
:104F4000909128044097081719070CF085CFCD2BB6
:104F500029F030931F0420931E047CCF88E06FCF8C
:104F600021E020930C049093050480930404609145
:104F70002B0470912C04AE01809148049091490457
:104F800068DE83E080930D0420911C0430911D04A1
:104F90008091290490912A042817390774F480918C
:104FA0002604863609F458CF80912704909128046E
:104FB0004096801791070CF04FCF89E0CD2B09F474
:104FC0003ECF309321042093200444CFCF93DF932E
:104FD000EC018091270490912804D0932804C09379
:104FE00027048C1B9D0B97FF03C091958195910918
:104FF000813091400CF0DEDA82DB5ADE80912604AB
:10500000803771F480910804909109048C1B9D0BEA
:1050100097FF03C09195819591098138910514F00E
:105020000E94A512DF91CF91089590932A04809356
:105030002904C0DA64DB3CDE0C94A512089590913B
:105040000D0481E0933021F0993011F080E0089553
:105050000895CF93DF9380912604843709F446C0E6
:1050600086E594E02FD8EBDFC82FE9DDD82F8091BB
:10507000120190911301DC01ED91FC910190F081FE
:10508000E02D6D2F09958091140190911501DC019F
:10509000ED91FC910190F081E02D6C2F09958091AC
:1050A000100190911101DC01ED91FC910190F081D2
:1050B000E02D60910A04611109C02091520422235D
:1050C00019F06C2FC11102C06091610409958091A3
:1050D0000E0190910F01DC01ED91FC910190F081A6
:1050E000E02DC11101C0CD2F6C2F0995DF91CF911B
:1050F0000895B0E0A0E0EEE7F8E230C680910C043D
:10510000882309F45FC09BDF81115CC08091620439
:10511000909163047AD5EC01009120041091210450
:105120007C01E01AF10AC0902B04D0902C04811568
:10513000904809F04FC0A3DC8538934008F446C07E
:10514000809162049091630455D5209120043091A0
:1051500021044091420450914304240F351F8217CB
:1051600093070CF04FC0809162049091630442D584
:10517000EC01B7018BE294E054DC83E120912B0435
:1051800030912C04D0932504C093240410920C0475
:105190003F932F93DF92CF921F930F93DF93CF9381
:1051A00023E332E03F932F938F9389E48F930E9400
:1051B00080148DB79EB70C960FB6F8949EBF0FBEA5
:1051C0008DBF04C080910B0481111FC0CDB7DEB725
:1051D000E8E0E0C580914004909141048E159F0560
:1051E00024F4B7018BE294E0F4DB809142049091C7
:1051F0004304E816F90624F4B7018BE294E011DCCD
:1052000081E1BCCF10920C04E1CF19DD8111DECF1A
:105210008091620490916304FDD4EC0100911E041E
:1052200010911F047C01E01AF10AC0902D04D09067
:105230002E04C11580E8D807C1F0809146049091F2
:105240004704E816F90624F4B7018DE294E0C1DBC7
:1052500080914404909145048E159F0524F4B70174
:105260008DE294E0DEDB82E122C001DC89309740F0
:1052700008F4ACCF8091620490916304BBD4209178
:105280001E0430911F044091440450914504240FA2
:10529000351F28173907B4F4809162049091630494
:1052A000A9D4EC01B7018DE294E0BBDB84E120914D
:1052B0002D0430912E04D0932304C0932204109225
:1052C0000B0466CF10920B0481CFAFE5B4E084E30A
:1052D00091E011969C938E9312961C921297E6E59C
:1052E000F4E08FE192E09183808388E592E09583FA
:1052F0008483B783A6830895B0E0A0E0E1E8F9E2F3
:1053000033C59E01255F3F4F49855A856F8178855A
:105310008D819E810FD7E2E043C58F929F92AF921D
:10532000BF92DF92EF92FF920F931F93CF93DF9381
:10533000EC01D02E77FD5CC080E288834A015B01DE
:1053400039E0B594A794979487943A95D1F774016E
:105350000AE010E0E9E6F6E0213051F004E610E062
:10536000E1E6F6E0223021F008EE13E0E9E5F6E0B0
:105370009A01AB01317044275527D801D5D47F5FFE
:105380008F4F9F4F29E095958795779567952A953B
:10539000D1F76017710730F074018FEFE81AF80A3F
:1053A00070E060E07F936F93FF92EF92FF93EF9333
:1053B0008D2D8150990B8C011F938F93CE010196F7
:1053C0009F938F9399DF8DB79EB70A960FB6F89487
:1053D0009EBF0FBE8DBFCE01DF91CF911F910F9168
:1053E000FF90EF90DF90BF90AF909F908F900895C7
:1053F0008DE2888370956095509541955F4F6F4F12
:105400007F4F9CCF0F93342FAB01770F660B770B39
:10541000022F232F82DF0F9108959C01FB019081C1
:10542000892F8F7D19F081E09E3231F481E062177F
:10543000730711F080E0089508950F931F93CF93A1
:10544000C42F20912F042634E9F4442319F070541A
:1054500081099109EDE297FDE3EDA2E3B0E09B0144
:10546000AC0162D40E2FEE0F110B220B330B600F29
:10547000711F821F931F2AE530E040E050E017D4EF
:10548000CA01B901CC2319F0705681099109CF9155
:105490001F910F9108950F931F9320912F0426348D
:1054A00009F5442321F062577C478F4F9F4FE9E174
:1054B00097FDE7EEAAE5B0E09B01AC0135D40E2FD5
:1054C000EE0F110B220B330B600F711F821F931F06
:1054D00022E330E040E050E0EAD3CA01B9011F9175
:1054E0000F9108954423D9F3705A8F4F9F4FF7CFF0
:1054F0000F931F93CF93DF93EC01CB01BA01122FCF
:105500009A0130582230310550F461E776E0CE013F
:10551000AFD5CE01DF91CF911F910F91089541E05A
:10552000BADFAB01BC01212FCE01F7DEEC01F1CFD8
:105530000F931F93CF93DF93EC01CB01BA01122F8E
:1055400040E0A9DFAB01BC01212FCE01E6DEDF91F7
:10555000CF911F910F9108950F931F9341E09BDF0F
:105560009B01AC01E0E0F1E057FF02C0E0E0FFEF9B
:10557000AAE0B0E0D9D38F01FF0F220B330B600FED
:10558000711F821F931F20E032E040E050E08FD374
:10559000C9011F910F910895BC01990F880B990BB8
:1055A00029E0660F771F881F991F2A95D1F76B5F37
:1055B0007F4F8F4F9F4F2AE030E040E050E077D39D
:1055C000CA01B90141E039DF623020E872072FEFEC
:1055D0008207920744F0611520E872078105910562
:1055E0002CF4CB01089582E090E808958FEF9FE7B7
:1055F0000895FA01623040E874074FEF840794077A
:105600008CF0611540E874078105910574F4AB01D5
:105610004E175F072CF0FB01241735070CF4F90136
:10562000CF01089542E050E8F3CF4FEF5FE7F3CFAB
:10563000623020E872072FEF8207920744F061156D
:1056400020E87207810591052CF4CB01089582E0D2
:1056500090E808958FEF9FE70895DC019A01AB0170
:105660006DD3DC01CB0129E0B595A795979587957A
:105670002A95D1F7823020E892072FEFA207B207D0
:105680003CF0811520E89207A105B10524F40895A6
:1056900082E090E808958FEF9FE708959C01DB0179
:1056A00028D3DC01CB0129E0B595A795979587957F
:1056B0002A95D1F7823020E892072FEFA207B20790
:1056C0003CF0811520E89207A105B10524F4089566
:1056D00082E090E808958FEF9FE70895B0E0A0E0A2
:1056E000E3E7FBE23BC37C01FB0191838083D0E0D5
:1056F000C0E0CC24C39420E030E0A90100811181F6
:10570000D801DC90DD2091F1B0E2DB1211C02097CE
:1057100031F1C11007C050954095309521953F4F0C
:105720004F4F5F4FCA01B901CDB7DEB7E8E032C3D2
:105730008DE2D816C9F080ED8D0D8A30B8F4AAE05C
:10574000B0E0F2D2AD2DA053BB0B9D01032E000C97
:10575000440B550B260F371F481F591F21960F5F0B
:105760001F4F11830083CACFC12CF9CFCD2B89F6EF
:10577000F182E082CECFA2E0B0E0E0ECFBE2E4C256
:105780001C018B016DE270E0C80182D44C01BE01A6
:105790006F5F7F4FC801A2DF2B013C0169817A81D5
:1057A000C8013BDE882321F080E02296E2E1E8C2D6
:1057B00029E0440C551C661C771C2A95D1F76EE233
:1057C00070E0C80165D4009769F15C012FEFA21A5F
:1057D000B20ABE016F5F7F4FC50180DF6B017C01A4
:1057E00009811A81B801C50118DE8111DDCFA70139
:1057F000960189E0220F331F441F551F8A95D1F768
:105800000A199AE0C92ED12CE12CF12C015068F034
:10581000CA01B9016B5F7F4F8F4F9F4FA701960160
:1058200046D2F4CF20E030E0A9018114910459F46C
:10583000420E531E641E751EF10140825182628227
:10584000738281E0B2CF421A530A640A750AF4CF18
:10585000A4E0B0E0EDE2FCE283C27C018B0184E5D0
:1058600096E021D4892B51F481E090E8F7019183EF
:10587000808311E0812F2496E6E08EC2B801CE012C
:10588000019679DF182F8823A9F369817A818B81AA
:105890009C8141E0D2DD6230F0E87F07FFEF8F07A7
:1058A0009F0754F0611520E87207810591053CF4CB
:1058B000F70171836083DECF62E070E8F9CF6FEFAC
:1058C0007FE7F6CFEF92FF921F93CF93DF9300D045
:1058D00000D0CDB7DEB77C01CE0101964CDF182F8A
:1058E0008823B1F069817A818B819C8140E0A5DDBC
:1058F000623020E872072FEF82079207A4F061154B
:10590000E0E87E07810591058CF4F70171836083DF
:10591000812F0F900F900F900F90DF91CF911F91DB
:10592000FF90EF90089562E070E8EFCF6FEF7FE7B0
:10593000ECCFA4E0B0E0EEE9FCE214C28C01CE01B1
:10594000019619DF8823A1F049815A816B817C81FE
:10595000423090E859079FEF6907790764F04115D5
:10596000E0E85E07610571054CF4F801518340835E
:105970002496E4E013C242E050E8F7CF4FEF5FE730
:10598000F4CFA2E0B0E0E6ECFCE2E6C18C015B0102
:105990008FE496E088D3892B31F481E0F80180838D
:1059A0002296EAE0F5C1B50189E496E07CD3892B23
:1059B00021F4F801108281E0F3CFBE016F5F7F4FC9
:1059C000C5018CDE6B017C0169817A81C50125DD11
:1059D000811109C0F1E0FC1518F38C2D8170C82EDF
:1059E000F8018083E8CF80E0DBCFA2E0B0E0EAEF0F
:1059F000FCE2B2C18C015B01BE016F5F7F4FC5014C
:105A00006DDE6B017C0169817A81C50106DD811142
:105A100015C0C114D10491E0E906F1044CF08FEFF8
:105A20009FEFF8019183808381E02296EAE0B0C184
:105A3000F7FCFBCFF801D182C082F6CF80E0F5CF32
:105A4000B0E0A0E0E5E2FDE289C1FC01A081B18106
:105A5000109709F440C0EC01ED91FC91119706807C
:105A6000F781E02DCD0109958823A9F17E01F1EFA1
:105A7000EF0EF11CD7018C918D3368F188819981EB
:105A8000DC01ED91FC910084F185E02D09958C01FC
:105A90008115B0E89B07F9F0BC01CE0102960E9487
:105AA00079136E01E0E5CE0ED11CB801C6010E944B
:105AB000791370E060E0CE0182569F4F0E94791307
:105AC000C6010E947113C351DF4F688379838A83B3
:105AD0009B83D7011C92CDB7DEB7E8E05BC18F9204
